:100000000C9452000C9464000C9464000C946400F2
:100010000C9464000C9464000C9464000C946400D0
:100020000C9464000C9464000C9464000C946400C0
:100030000C9464000C9464000C9464000C946400B0
:100040000C948B000C94D5000C9464000C94640008
:100050000C9464000C9464000C9464000C94640090
:100060000C9464000C94640000000000250028003B
:100070002B0000000000240027002A0004040404D0
:100080000404040402020202020203030303030342
:10009000010204081020408001020408102001021F
:1000A0000408102011241FBECFEFD8E0DEBFCDBF63
:1000B00021E0A0E0B1E001C01D92AA34B207E1F74F
:1000C0000E94F7000C9495010C9400003FB7F8943F
:1000D0008091460190914701A0914801B09149015A
:1000E00026B5A89B05C02F3F19F00196A11DB11D93
:1000F0003FBFBA2FA92F982F8827BC01CD01620FCF
:10010000711D811D911D42E0660F771F881F991F89
:100110004A95D1F708951F920F920FB60F921124AE
:100120002F933F938F939F93AF93BF9380914201FF
:1001300090914301A0914401B0914501309141015A
:1001400023E0230F2D3758F50196A11DB11D2093F3
:1001500041018093420190934301A0934401B093E5
:1001600045018091460190914701A0914801B091CD
:1001700049010196A11DB11D80934601909347014D
:10018000A0934801B0934901BF91AF919F918F9186
:100190003F912F910F900FBE0F901F90189526E85A
:1001A000230F0296A11DB11DD2CF1F920F920FB641
:1001B0000F9211248F93EF93FF93E0910001F0E0F1
:1001C000EF5FFE4F80818EBD809100018F5F809335
:1001D000000180910001803410F010920001FF9125
:1001E000EF918F910F900FBE0F901F9018957894FC
:1001F00084B5826084BD84B5816084BD85B582602C
:1002000085BD85B5816085BD80916E0081608093DC
:100210006E00109281008091810082608093810045
:100220008091810081608093810080918000816055
:10023000809380008091B10084608093B1008091B0
:10024000B00081608093B00080917A0084608093D8
:100250007A0080917A00826080937A0080917A009F
:10026000816080937A0080917A00806880937A0020
:100270001092C1000E9466004B015C0140EDC42E4B
:1002800047E0D42EE12CF12C0E9466006819790910
:100290008A099B09683E734081059105A8F321E016
:1002A000C21AD108E108F10888EE880E83E0981E92
:1002B000A11CB11CC114D104E104F10429F7E1E04F
:1002C000F1E080E081938F5F8034E1F7ECE9F0E0CA
:1002D0002491E8E8F0E08491882399F090E0880F79
:1002E000991FFC01EE58FF4FA591B491FC01E8590C
:1002F000FF4F859194918FB7F894EC91E22BEC939A
:100300008FBF809101018EBD81E0809300018CB58B
:1003100080648CBD8CB580688CBD7894C0E0D0E0E2
:0E0320002097F1F30E940000FBCFF894FFCF6E
:00000001FF
