:100000000C9435000C945D000C945D000C945D0024
:100010000C945D000C945D000C945D000C940E0239
:100020000C945D000C945D000C945D000C94330204
:100030000C945D000C945D000C9458020C945D00CF
:100040000C946C010C945D000C94DC010C94B601D2
:100050000C945D000C945D000C945D000C945D00AC
:100060000C945D000C945D00030411241FBECFEFBF
:10007000D8E0DEBFCDBF11E0A0E0B1E0E4EBF8E0F6
:1000800002C005900D92A632B107D9F721E0A6E291
:10009000B1E001C01D92AC3DB207E1F710E0C5E34D
:1000A000D0E004C02197FE010E945204C433D1075E
:1000B000C9F70E94CE020C9458040C940000AF9231
:1000C000BF92CF92DF92EF92FF920F931F93CF9345
:1000D000DF936C017B018B01040F151FEB015E01A7
:1000E000AE18BF08C017D10759F06991D601ED913C
:1000F000FC910190F081E02DC6010995892B79F7DB
:10010000C501DF91CF911F910F91FF90EF90DF908C
:10011000CF90BF90AF900895FC01538D448D252F53
:1001200030E0842F90E0821B930B541710F0CF9691
:10013000089501970895FC01918D828D981761F0C3
:10014000A28DAE0FBF2FB11D5D968C91928D9F5FDA
:100150009F73928F90E008958FEF9FEF0895FC01B9
:10016000918D828D981731F0828DE80FF11D858D6C
:1001700090E008958FEF9FEF0895FC01918D228DFF
:10018000892F90E0805C9F4F821B91098F73992784
:1001900008958FE391E00E94BD0021E0892B09F4CE
:1001A00020E0822F089580E090E0892B29F00E94C2
:1001B000C90081110C9400000895FC01A48DA80FC2
:1001C000B92FB11DA35ABF4F2C91848D90E0019699
:1001D0008F739927848FA689B7892C93A089B189B9
:1001E0008C91837080648C93938D848D981306C05A
:1001F0000288F389E02D80818F7D80830895EF92BE
:10020000FF920F931F93CF93DF93EC0181E0888FD0
:100210009B8D8C8D98131AC0E889F989808185FFA0
:1002200015C09FB7F894EE89FF896083E889F98942
:1002300080818370806480839FBF81E090E0DF9144
:10024000CF911F910F91FF90EF900895F62E0B8D97
:1002500010E00F5F1F4F0F731127E02E8C8D8E1152
:100260000CC00FB607FCFACFE889F989808185FFB9
:10027000F5CFCE010E94DD00F1CFEB8DEC0FFD2F0D
:10028000F11DE35AFF4FF0829FB7F8940B8FEA8974
:10029000FB8980818062CFCFCF93DF93EC01888D83
:1002A0008823B9F0AA89BB89E889F9898C9185FDF1
:1002B00003C0808186FD0DC00FB607FCF7CF8C917F
:1002C00085FFF2CF808185FFEDCFCE010E94DD005A
:1002D000E9CFDF91CF9108951F920F920FB60F9241
:1002E00011242F933F938F939F93AF93BF9380914C
:1002F0003B0190913C01A0913D01B0913E013091B4
:100300003A0123E0230F2D3758F50196A11DB11DA9
:1003100020933A0180933B0190933C01A0933D01CF
:10032000B0933E018091360190913701A091380140
:10033000B09139010196A11DB11D809336019093B2
:100340003701A0933801B0933901BF91AF919F91CC
:100350008F913F912F910F900FBE0F901F90189586
:1003600026E8230F0296A11DB11DD2CF1F920F9236
:100370000FB60F9211242F933F934F935F936F9378
:100380007F938F939F93AF93BF93EF93FF938FE3ED
:1003900091E00E94DD00FF91EF91BF91AF919F919D
:1003A0008F917F916F915F914F913F912F910F901E
:1003B0000FBE0F901F9018951F920F920FB60F92BD
:1003C00011242F938F939F93EF93FF93E0914F010D
:1003D000F09150018081E0915501F091560182FD2C
:1003E0001BC09081809158018F5F8F7320915901BC
:1003F000821741F0E0915801F0E0E15CFE4F958FEB
:1004000080935801FF91EF919F918F912F910F90C1
:100410000FBE0F901F9018958081F4CF1F920F92FE
:100420000FB60F9211248F939F93AF93BF93809138
:100430002E0190912F01A0913001B09131010196D0
:10044000A11DB11D80932E0190932F01A093300127
:10045000B0933101BF91AF919F918F910F900FBEDB
:100460000F901F9018951F920F920FB60F921124A4
:100470008F939F93AF93BF93809126019091270113
:10048000A0912801B09129010196A11DB11D809371
:10049000260190932701A0932801B0932901BF91D1
:1004A000AF919F918F910F900FBE0F901F90189555
:1004B0001F920F920FB60F9211248F939F93AF93B9
:1004C000BF9380912A0190912B01A0912C01B091B2
:1004D0002D010196A11DB11D80932A0190932B013E
:1004E000A0932C01B0932D01BF91AF919F918F915B
:1004F0000F900FBE0F901F901895FC0101900020E7
:10050000E9F73197AF01481B590BBC018FE391E02C
:100510000C945F008F929F92AF92BF920F931F93A4
:10052000CF93DF93CDB7DEB7A1970FB6F894DEBFB8
:100530000FBECDBF19A2423008F44AE08E010F5D14
:100540001F4F842E912CB12CA12CA50194010E9447
:100550003004E62FB901CA01EA30F4F4E05DD801B5
:10056000EE938D01232B242B252B79F790E080E04F
:10057000109719F0CD010E947D02A1960FB6F89454
:10058000DEBF0FBECDBFDF91CF911F910F91BF9006
:10059000AF909F908F900895E95CE1CF789484B5F7
:1005A000826084BD84B5816084BD85B5826085BD6F
:1005B00085B5816085BD80916E00816080936E00FD
:1005C00010928100809181008260809381008091EF
:1005D00081008160809381008091800081608093A0
:1005E00080008091B10084608093B1008091B00060
:1005F00081608093B00080917A00846080937A005B
:1006000080917A00826080937A0080917A00816084
:1006100080937A0080917A00806880937A001092AB
:10062000C100E0914F01F091500182E08083E091A0
:100630004B01F0914C011082E0914D01F0914E017F
:1006400090E1908310925701E0915301F091540191
:1006500096E09083E0915101F09152019081906178
:100660009083E0915101F0915201908198609083C4
:10067000E0915101F0915201908190689083E09156
:100680005101F091520190819F7D908384BD21E0C2
:1006900025BD9FEF97BD80936E001092800039E0DA
:1006A000309381004FEF5FEF5093890040938800B3
:1006B00080936F008093B0002093B1009093B300BB
:1006C000809370007894C0E0D0E0809132019091E6
:1006D0003301A0913401B09135010397A105B10513
:1006E00008F0FFCF80912E0190912F01A091300151
:1006F000B09131018432944FA105B10508F478C05E
:10070000F89440902A0150902B0160902C01709039
:100710002D018090260190902701A0902801B09093
:100720002901C0902E01D0902F01E0903001F0906F
:10073000310110922E0110922F011092300110926F
:100740003101109226011092270110922801109277
:10075000290110922A0110922B0110922C01109263
:100760002D01789482E191E00E947D026091320136
:100770007091330180913401909135014AE00E94DB
:100780008A028DE191E00E947D02962D852D742DC7
:1007900066274AE00E948A0280E291E00E947D0280
:1007A000C401772766274AE00E948A0280E291E02E
:1007B0000E947D029E2D8D2D7C2D66274AE00E9491
:1007C0008A0283E291E00E947D0280913201909141
:1007D0003301A0913401B09135010196A11DB11DE5
:1007E0008093320190933301A0933401B09335018B
:1007F000209709F46ACF0E94C900882309F465CFC5
:100800000E94000062CFEFE3F1E01382128288EED3
:1008100093E0A0E0B0E084839583A683B78384E06F
:1008200091E09183808385EC90E09587848784ECC8
:1008300090E09787868780EC90E0918B808B81ECAD
:1008400090E0938B828B82EC90E0958B848B86EC8E
:1008500090E0978B868B118E128E138E148E0895D6
:10086000A1E21A2EAA1BBB1BFD010DC0AA1FBB1FB4
:10087000EE1FFF1FA217B307E407F50720F0A21B26
:10088000B30BE40BF50B661F771F881F991F1A9493
:1008900069F760957095809590959B01AC01BD01BD
:1008A000CF010895EE0FFF1F0590F491E02D0994FC
:0408B000F894FFCFEA
:1008B40000000000FF005F008C004C01BD009B00A5
:1008C400AF00497465726174696F6E20003A20004C
:0608D4002C20000D0A00BB
:00000001FF
