:100000000C9435000C945D000C945D000C945D0024
:100010000C945D000C945D000C945D000C945D00EC
:100020000C945D000C945D000C945D000C945D00DC
:100030000C945D000C945D000C945D000C945D00CC
:100040000C94BD010C945D000C942D020C940702DD
:100050000C945D000C945D000C945D000C945D00AC
:100060000C945D000C945D00480311241FBECFEF7B
:10007000D8E0DEBFCDBF11E0A0E0B1E0E4EBF9E0F5
:1000800002C005900D92A033B107D9F721E0A0E39B
:10009000B1E001C01D92AE3DB207E1F710E0C5E34B
:1000A000D0E004C02197FE010E94AD03C433D10704
:1000B000C9F70E945F020C94D8040C940000AF9220
:1000C000BF92CF92DF92EF92FF920F931F93CF9345
:1000D000DF936C017B018B01040F151FEB015E01A7
:1000E000AE18BF08C017D10759F06991D601ED913C
:1000F000FC910190F081E02DC6010995892B79F7DB
:10010000C501DF91CF911F910F91FF90EF90DF908C
:10011000CF90BF90AF900895FC01538D448D252F53
:1001200030E0842F90E0821B930B541710F0CF9691
:10013000089501970895FC01918D828D981761F0C3
:10014000A28DAE0FBF2FB11D5D968C91928D9F5FDA
:100150009F73928F90E008958FEF9FEF0895FC01B9
:10016000918D828D981731F0828DE80FF11D858D6C
:1001700090E008958FEF9FEF0895FC01918D228DFF
:10018000892F90E0805C9F4F821B91098F73992784
:1001900008958DE391E00E94BD0021E0892B09F4D0
:1001A00020E0822F089580E090E0892B29F00E94C2
:1001B000C90081110C9400000895FC01A48DA80FC2
:1001C000B92FB11DA35ABF4F2C91848D90E0019699
:1001D0008F739927848FA689B7892C93A089B189B9
:1001E0008C91837080648C93938D848D981306C05A
:1001F0000288F389E02D80818F7D80830895EF92BE
:10020000FF920F931F93CF93DF93EC0181E0888FD0
:100210009B8D8C8D98131AC0E889F989808185FFA0
:1002200015C09FB7F894EE89FF896083E889F98942
:1002300080818370806480839FBF81E090E0DF9144
:10024000CF911F910F91FF90EF900895F62E0B8D97
:1002500010E00F5F1F4F0F731127E02E8C8D8E1152
:100260000CC00FB607FCFACFE889F989808185FFB9
:10027000F5CFCE010E94DD00F1CFEB8DEC0FFD2F0D
:10028000F11DE35AFF4FF0829FB7F8940B8FEA8974
:10029000FB8980818062CFCFCF93DF93EC01888D83
:1002A0008823B9F0AA89BB89E889F9898C9185FDF1
:1002B00003C0808186FD0DC00FB607FCF7CF8C917F
:1002C00085FFF2CF808185FFEDCFCE010E94DD005A
:1002D000E9CFDF91CF910895FC0101900020E9F76B
:1002E0003197AF01481B590BBC018DE391E00C9491
:1002F0005F008F929F92AF92BF920F931F93CF9305
:10030000DF93CDB7DEB7A1970FB6F894DEBF0FBE6F
:10031000CDBF19A2423008F44AE08E010F5D1F4F95
:10032000842E912CB12CA12CA50194010E948B0349
:10033000E62FB901CA01EA30F4F4E05DD801EE938A
:100340008D01232B242B252B79F790E080E010974B
:1003500019F0CD010E946C01A1960FB6F894DEBF92
:100360000FBECDBFDF91CF911F910F91BF90AF9086
:100370009F908F900895E95CE1CF1F920F920FB686
:100380000F9211242F933F938F939F93AF93BF931B
:100390008091390190913A01A0913B01B0913C01CB
:1003A0003091380123E0230F2D3758F50196A11D18
:1003B000B11D209338018093390190933A01A093A5
:1003C0003B01B0933C018091340190913501A091A3
:1003D0003601B09137010196A11DB11D8093340102
:1003E00090933501A0933601B0933701BF91AF913F
:1003F0009F918F913F912F910F900FBE0F901F9063
:10040000189526E8230F0296A11DB11DD2CF1F9289
:100410000F920FB60F9211242F933F934F935F9338
:100420006F937F938F939F93AF93BF93EF93FF93BC
:100430008DE391E00E94DD00FF91EF91BF91AF91BC
:100440009F918F917F916F915F914F913F912F91EC
:100450000F900FBE0F901F9018951F920F920FB61E
:100460000F9211242F938F939F93EF93FF93E0911B
:100470004D01F0914E018081E0915301F0915401C2
:1004800082FD1BC09081809156018F5F8F732091F8
:100490005701821741F0E0915601F0E0E35CFE4F16
:1004A000958F80935601FF91EF919F918F912F919E
:1004B0000F900FBE0F901F9018958081F4CF789405
:1004C00084B5826084BD84B5816084BD85B5826059
:1004D00085BD85B5816085BD80916E00816080930A
:1004E0006E00109281008091810082608093810073
:1004F0008091810081608093810080918000816083
:10050000809380008091B10084608093B1008091DD
:10051000B00081608093B00080917A008460809305
:100520007A0080917A00826080937A0080917A00CC
:10053000816080937A0080917A00806880937A004D
:100540001092C100E0914D01F0914E0182E0808354
:10055000E0914901F0914A011082E0914B01F09144
:100560004C0180E1808310925501E0915101F0919E
:10057000520186E08083E0914F01F091500180812B
:1005800080618083E0914F01F0915001808188600B
:100590008083E0914F01F0915001808180688083D9
:1005A000E0914F01F091500180818F7D808380E048
:1005B00094E00E94B3038C017C016C01D0E0C0E0A8
:1005C000CE010E9475038F3F21F06FEFCE010E9494
:1005D0007D03CE010E947503F60181936F01219680
:1005E000C115F4E0DF0761F780913001909131018E
:1005F000A0913201B091330198013C5FF701419124
:100600007F014F3F19F40196A11DB11DE216F306BB
:10061000A9F78093300190933101A0933201B093F8
:10062000330181159440A105B10579F588E191E088
:100630000E946C0160913001709131018091320112
:10064000909133014AE00E94790181E291E00E9499
:100650006C014AE060E074E080E090E00E94790183
:1006600083E291E00E946C010115110519F0C801A7
:100670000E944F04C0E0D0E02097F1F30E94C9002F
:100680008823D1F30E940000F7CF86E291E0D0CF1B
:10069000EDE3F1E01382128288EE93E0A0E0B0E097
:1006A00084839583A683B7838AE091E091838083D6
:1006B00085EC90E09587848784EC90E09787868727
:1006C00080EC90E0918B808B81EC90E0938B828B1F
:1006D00082EC90E0958B848B86EC90E0978B868BF8
:1006E000118E128E138E148E0895F999FECF92BD3D
:1006F00081BDF89A992780B50895262FF999FECFE4
:100700001FBA92BD81BD20BD0FB6F894FA9AF99A2E
:100710000FBE01960895A1E21A2EAA1BBB1BFD0174
:100720000DC0AA1FBB1FEE1FFF1FA217B307E407D0
:10073000F50720F0A21BB30BE40BF50B661F771F28
:10074000881F991F1A9469F7609570958095909508
:100750009B01AC01BD01CF010895EE0FFF1F059075
:10076000F491E02D09940F931F93CF93DF93823080
:10077000910510F482E090E0E091DC01F091DD0160
:1007800030E020E0B0E0A0E0309799F42115310589
:1007900009F44AC0281B390B24303105D8F58A8169
:1007A0009B816115710589F1FB0193838283FE01B1
:1007B00011C0408151810281138148175907E0F02F
:1007C0004817590799F4109761F012960C931297F5
:1007D00013961C933296CF01DF91CF911F910F9109
:1007E00008950093DC011093DD01F4CF211531054C
:1007F00051F04217530738F0A901DB019A01BD01FE
:10080000DF01F801C1CFEF01F9CF9093DD018093B3
:10081000DC01CDCFFE01E20FF31F819391932250B3
:10082000310939832883D7CF2091DA013091DB0158
:10083000232B41F420910201309103013093DB011D
:100840002093DA0120910001309101012115310539
:1008500041F42DB73EB74091040150910501241B8E
:10086000350BE091DA01F091DB01E217F307A0F418
:100870002E1B3F0B2817390778F0AC014E5F5F4FF6
:100880002417350748F04E0F5F1F5093DB0140934C
:10089000DA01819391939FCFF0E0E0E09CCFCF937A
:1008A000DF930097E9F0FC01329713821282A09146
:1008B000DC01B091DD01ED0130E020E01097A1F402
:1008C00020813181820F931F2091DA013091DB0169
:1008D0002817390709F061C0F093DB01E093DA01D2
:1008E000DF91CF910895EA01CE17DF07E8F54A813D
:1008F0005B819E0141155105B1F7E901FB83EA8354
:1009000049915991C40FD51FEC17FD0761F48081FF
:1009100091810296840F951FE901998388838281D2
:1009200093819B838A83F0E0E0E012968D919C9105
:1009300013970097B9F52D913C911197CD0102962F
:10094000820F931F2091DA013091DB0128173907BC
:1009500039F6309751F51092DD011092DC01B09319
:10096000DB01A093DA01BCCFD383C28340815181E4
:10097000840F951FC817D90761F44E5F5F4F8881B8
:100980009981480F591F518340838A819B819383AA
:1009900082832115310509F0B0CFF093DD01E0939A
:1009A000DC019ECFFD01DC01C0CF13821282D7CFC4
:0409B000F894FFCFE9
:1009B4000000DE01800000000000FF005F008C00EA
:1009C4004C01BD009B00AF005061737365643A2015
:1009D400002F000D0A004661696C65643A2000002E
:00000001FF
